{
  "_format": "hh-sol-artifact-1",
  "contractName": "Library",
  "sourceName": "contracts/Library.sol",
  "abi": [
    {
      "anonymous": false,
      "inputs": [
        {
          "indexed": false,
          "internalType": "bytes32",
          "name": "_bookId",
          "type": "bytes32"
        },
        {
          "indexed": false,
          "internalType": "uint256",
          "name": "_copies",
          "type": "uint256"
        }
      ],
      "name": "LogBookAdded",
      "type": "event"
    },
    {
      "anonymous": false,
      "inputs": [
        {
          "indexed": false,
          "internalType": "bytes32",
          "name": "_bookId",
          "type": "bytes32"
        },
        {
          "indexed": false,
          "internalType": "address",
          "name": "_user",
          "type": "address"
        }
      ],
      "name": "LogBookBorrowed",
      "type": "event"
    },
    {
      "anonymous": false,
      "inputs": [
        {
          "indexed": false,
          "internalType": "bytes32",
          "name": "_bookId",
          "type": "bytes32"
        },
        {
          "indexed": false,
          "internalType": "address",
          "name": "_user",
          "type": "address"
        }
      ],
      "name": "LogBookReturned",
      "type": "event"
    },
    {
      "anonymous": false,
      "inputs": [
        {
          "indexed": true,
          "internalType": "address",
          "name": "previousOwner",
          "type": "address"
        },
        {
          "indexed": true,
          "internalType": "address",
          "name": "newOwner",
          "type": "address"
        }
      ],
      "name": "OwnershipTransferred",
      "type": "event"
    },
    {
      "inputs": [
        {
          "internalType": "string",
          "name": "_title",
          "type": "string"
        },
        {
          "internalType": "string",
          "name": "_author",
          "type": "string"
        },
        {
          "internalType": "uint8",
          "name": "_copies",
          "type": "uint8"
        }
      ],
      "name": "addBook",
      "outputs": [],
      "stateMutability": "nonpayable",
      "type": "function"
    },
    {
      "inputs": [
        {
          "internalType": "bytes32",
          "name": "",
          "type": "bytes32"
        }
      ],
      "name": "books",
      "outputs": [
        {
          "internalType": "string",
          "name": "title",
          "type": "string"
        },
        {
          "internalType": "string",
          "name": "author",
          "type": "string"
        },
        {
          "internalType": "uint256",
          "name": "copies",
          "type": "uint256"
        }
      ],
      "stateMutability": "view",
      "type": "function"
    },
    {
      "inputs": [],
      "name": "booksCount",
      "outputs": [
        {
          "internalType": "uint256",
          "name": "",
          "type": "uint256"
        }
      ],
      "stateMutability": "view",
      "type": "function"
    },
    {
      "inputs": [
        {
          "internalType": "bytes32",
          "name": "_bookId",
          "type": "bytes32"
        }
      ],
      "name": "borrowBook",
      "outputs": [],
      "stateMutability": "nonpayable",
      "type": "function"
    },
    {
      "inputs": [],
      "name": "owner",
      "outputs": [
        {
          "internalType": "address",
          "name": "",
          "type": "address"
        }
      ],
      "stateMutability": "view",
      "type": "function"
    },
    {
      "inputs": [],
      "name": "renounceOwnership",
      "outputs": [],
      "stateMutability": "nonpayable",
      "type": "function"
    },
    {
      "inputs": [
        {
          "internalType": "bytes32",
          "name": "_bookId",
          "type": "bytes32"
        }
      ],
      "name": "returnBook",
      "outputs": [],
      "stateMutability": "nonpayable",
      "type": "function"
    },
    {
      "inputs": [],
      "name": "showAvailableBooks",
      "outputs": [
        {
          "internalType": "bytes32[]",
          "name": "",
          "type": "bytes32[]"
        }
      ],
      "stateMutability": "view",
      "type": "function"
    },
    {
      "inputs": [
        {
          "internalType": "bytes32",
          "name": "_bookId",
          "type": "bytes32"
        }
      ],
      "name": "showBookHistory",
      "outputs": [
        {
          "internalType": "address[]",
          "name": "",
          "type": "address[]"
        }
      ],
      "stateMutability": "view",
      "type": "function"
    },
    {
      "inputs": [
        {
          "internalType": "address",
          "name": "_user",
          "type": "address"
        }
      ],
      "name": "showBookHistoryByUser",
      "outputs": [
        {
          "internalType": "bytes32[]",
          "name": "",
          "type": "bytes32[]"
        }
      ],
      "stateMutability": "view",
      "type": "function"
    },
    {
      "inputs": [
        {
          "internalType": "bytes32",
          "name": "_bookId",
          "type": "bytes32"
        },
        {
          "internalType": "address",
          "name": "_user",
          "type": "address"
        }
      ],
      "name": "showBookLog",
      "outputs": [
        {
          "components": [
            {
              "internalType": "uint256",
              "name": "borrowedTimestamp",
              "type": "uint256"
            },
            {
              "internalType": "uint256",
              "name": "returnedTimestamp",
              "type": "uint256"
            }
          ],
          "internalType": "struct Library.HistoryItem[]",
          "name": "",
          "type": "tuple[]"
        }
      ],
      "stateMutability": "view",
      "type": "function"
    },
    {
      "inputs": [
        {
          "internalType": "address",
          "name": "_user",
          "type": "address"
        }
      ],
      "name": "showUserCurrentBooks",
      "outputs": [
        {
          "internalType": "bytes32[]",
          "name": "",
          "type": "bytes32[]"
        }
      ],
      "stateMutability": "view",
      "type": "function"
    },
    {
      "inputs": [
        {
          "internalType": "address",
          "name": "newOwner",
          "type": "address"
        }
      ],
      "name": "transferOwnership",
      "outputs": [],
      "stateMutability": "nonpayable",
      "type": "function"
    }
  ],
  "bytecode": "0x608060405234801561001057600080fd5b5061001a3361001f565b61006f565b600080546001600160a01b038381166001600160a01b0319831681178455604051919092169283917f8be0079c531659141344cd1fd0a4f28419497f9722a3daafe3b4186f6b6457e09190a35050565b6112958061007e6000396000f3fe608060405234801561001057600080fd5b50600436106100cf5760003560e01c806350e412cf1161008c5780638da5cb5b116100665780638da5cb5b146101aa578063d25a4348146101c5578063e1cb4d03146101d8578063f2fde38b146101ef57600080fd5b806350e412cf1461017a578063715018a614610182578063727664451461018a57600080fd5b806301ac4b22146100d45780630c0dee70146100fd57806312775c161461011f5780632982d231146101345780632ffbc1751461015457806341162acf14610167575b600080fd5b6100e76100e2366004610de1565b610202565b6040516100f49190610e03565b60405180910390f35b61011061010b366004610e47565b610230565b6040516100f493929190610ea6565b61013261012d366004610e47565b610362565b005b610147610142366004610e47565b610535565b6040516100f49190610edc565b610132610162366004610f66565b6105a1565b6100e7610175366004610de1565b6106f7565b6100e761071b565b61013261072c565b61019d610198366004610ff0565b610740565b6040516100f4919061101c565b6000546040516001600160a01b0390911681526020016100f4565b6101326101d3366004610e47565b610846565b6101e160015481565b6040519081526020016100f4565b6101326101fd366004610de1565b610ad2565b6001600160a01b038116600090815260036020819052604090912060609161022a9101610b4b565b92915050565b60026020526000908152604090208054819061024b9061106b565b80601f01602080910402602001604051908101604052809291908181526020018280546102779061106b565b80156102c45780601f10610299576101008083540402835291602001916102c4565b820191906000526020600020905b8154815290600101906020018083116102a757829003601f168201915b5050505050908060010180546102d99061106b565b80601f01602080910402602001604051908101604052809291908181526020018280546103059061106b565b80156103525780601f1061032757610100808354040283529160200191610352565b820191906000526020600020905b81548152906001019060200180831161033557829003601f168201915b5050505050908060020154905083565b6000818152600260205260409020805482919061037e9061106b565b90506000036103cf5760405162461bcd60e51b81526020600482015260186024820152775468697320626f6f6b20646f65736e27742065786973742160401b60448201526064015b60405180910390fd5b336000908152600360209081526040808320858452918290529091205483919060ff166104485760405162461bcd60e51b815260206004820152602160248201527f5468697320626f6f6b206973206e6f7420626f72726f77656420627920796f756044820152602160f81b60648201526084016103c6565b6000848152600260208190526040822001805491610465836110bb565b90915550503360009081526003602052604090206104838186610ba6565b60008581526006820160205260408120546104a0906001906110d4565b6000878152600684016020526040812080549293509091839081106104c7576104c76110e7565b906000526020600020906002020190504281600101819055506104f4876006610cb090919063ffffffff16565b604080518881523360208201527ff769c861cb2d8624d4f364b0581026547a2412551b964fd0a88bc41f8205bfdc910160405180910390a150505050505050565b60008181526005602090815260409182902080548351818402810184019094528084526060939283018282801561059557602002820191906000526020600020905b81546001600160a01b03168152600190910190602001808311610577575b50505050509050919050565b6105a9610d1b565b600085856040516020016105be9291906110fd565b60408051601f1981840301815282825280516020918201206080601f8a0183900490920284018201909252606083018881529193508291908990899081908501838280828437600092019190915250505090825250604080516020601f880181900481028201810190925286815291810191908790879081908401838280828437600092018290525093855250505060ff8516602092830152838152600290915260409020815181906106719082611172565b50602082015160018201906106869082611172565b506040919091015160029091015561069f600682610cb0565b600180549060006106af836110bb565b90915550506040805182815260ff841660208201527f1f181206b43c17a24a2e32971f4c085456cb9925e75b9cdda04e314bc7a2c77f910160405180910390a1505050505050565b6001600160a01b038116600090815260036020526040902060609061022a90610b4b565b60606107276006610b4b565b905090565b610734610d1b565b61073e6000610d75565b565b6001600160a01b03811660009081526003602090815260408083208584526006019091529020546060906107b65760405162461bcd60e51b815260206004820152601860248201527f4e6f207265636f72647320666f72207468697320626f6f6b000000000000000060448201526064016103c6565b6001600160a01b0382166000908152600360209081526040808320868452600601825280832080548251818502810185019093528083529193909284015b8282101561083a578382906000526020600020906002020160405180604001604052908160008201548152602001600182015481525050815260200190600101906107f4565b50505050905092915050565b600081815260026020526040902080548291906108629061106b565b90506000036108ae5760405162461bcd60e51b81526020600482015260186024820152775468697320626f6f6b20646f65736e27742065786973742160401b60448201526064016103c6565b336000908152600360209081526040808320858452918290529091205483919060ff16156109145760405162461bcd60e51b8152602060048201526013602482015272596f752068617665207468697320626f6f6b2160681b60448201526064016103c6565b600084815260026020819052604090912001546109735760405162461bcd60e51b815260206004820152601b60248201527f5468697320626f6f6b206973206e6f7420617661696c61626c6521000000000060448201526064016103c6565b600084815260026020819052604082200180549161099083611232565b9091555050600084815260046020908152604080832033845290915290205460ff16610a0b57600084815260046020908152604080832033808552908352818420805460ff19166001908117909155888552600584529184208054928301815584529190922090910180546001600160a01b03191690911790555b336000908152600360205260409020610a248186610cb0565b610a316003820186610cb0565b6000858152600682016020908152604080832081518083018352428152808401858152825460018181018555938752858720925160029182029093019283559051919092015588845291829052822001549003610a9357610a93600686610ba6565b604080518681523360208201527f97bc4375428520dcab95001d4747eb3440f3441f20f0273d7737ce7be4a51e56910160405180910390a15050505050565b610ada610d1b565b6001600160a01b038116610b3f5760405162461bcd60e51b815260206004820152602660248201527f4f776e61626c653a206e6577206f776e657220697320746865207a65726f206160448201526564647265737360d01b60648201526084016103c6565b610b4881610d75565b50565b60608160020180548060200260200160405190810160405280929190818152602001828054801561059557602002820191906000526020600020905b815481526020019060010190808311610b875750505050509050919050565b6000818152602083905260409020805460ff19169055600282015460011015610c82576002820154600090610bdd906001906110d4565b90506000836002018281548110610bf657610bf66110e7565b90600052602060002001549050600084600101600085815260200190815260200160002054905081856002018281548110610c3357610c336110e7565b60009182526020909120015560028501805480610c5257610c52611249565b60008281526020808220830160001990810183905590920190925592815260018601909252604090912055505050565b81600201805480610c9557610c95611249565b600190038181906000526020600020016000905590555b5050565b60008181526020839052604090205460ff16610cac576000818152602083815260408220805460ff191660019081179091556002850180548083018255818552929093209091018390559054610d0691906110d4565b60008281526001840160205260409020555050565b6000546001600160a01b0316331461073e5760405162461bcd60e51b815260206004820181905260248201527f4f776e61626c653a2063616c6c6572206973206e6f7420746865206f776e657260448201526064016103c6565b600080546001600160a01b038381166001600160a01b0319831681178455604051919092169283917f8be0079c531659141344cd1fd0a4f28419497f9722a3daafe3b4186f6b6457e09190a35050565b80356001600160a01b0381168114610ddc57600080fd5b919050565b600060208284031215610df357600080fd5b610dfc82610dc5565b9392505050565b6020808252825182820181905260009190848201906040850190845b81811015610e3b57835183529284019291840191600101610e1f565b50909695505050505050565b600060208284031215610e5957600080fd5b5035919050565b6000815180845260005b81811015610e8657602081850181015186830182015201610e6a565b506000602082860101526020601f19601f83011685010191505092915050565b606081526000610eb96060830186610e60565b8281036020840152610ecb8186610e60565b915050826040830152949350505050565b6020808252825182820181905260009190848201906040850190845b81811015610e3b5783516001600160a01b031683529284019291840191600101610ef8565b60008083601f840112610f2f57600080fd5b50813567ffffffffffffffff811115610f4757600080fd5b602083019150836020828501011115610f5f57600080fd5b9250929050565b600080600080600060608688031215610f7e57600080fd5b853567ffffffffffffffff80821115610f9657600080fd5b610fa289838a01610f1d565b90975095506020880135915080821115610fbb57600080fd5b50610fc888828901610f1d565b909450925050604086013560ff81168114610fe257600080fd5b809150509295509295909350565b6000806040838503121561100357600080fd5b8235915061101360208401610dc5565b90509250929050565b602080825282518282018190526000919060409081850190868401855b8281101561105e57815180518552860151868501529284019290850190600101611039565b5091979650505050505050565b600181811c9082168061107f57607f821691505b60208210810361109f57634e487b7160e01b600052602260045260246000fd5b50919050565b634e487b7160e01b600052601160045260246000fd5b6000600182016110cd576110cd6110a5565b5060010190565b8181038181111561022a5761022a6110a5565b634e487b7160e01b600052603260045260246000fd5b8183823760009101908152919050565b634e487b7160e01b600052604160045260246000fd5b601f82111561116d57600081815260208120601f850160051c8101602086101561114a5750805b601f850160051c820191505b8181101561116957828155600101611156565b5050505b505050565b815167ffffffffffffffff81111561118c5761118c61110d565b6111a08161119a845461106b565b84611123565b602080601f8311600181146111d557600084156111bd5750858301515b600019600386901b1c1916600185901b178555611169565b600085815260208120601f198616915b82811015611204578886015182559484019460019091019084016111e5565b50858210156112225787850151600019600388901b60f8161c191681555b5050505050600190811b01905550565b600081611241576112416110a5565b506000190190565b634e487b7160e01b600052603160045260246000fdfea2646970667358221220096cee48cfe41c515324ce548d667c6d8a6d3485ccbd7175915c4c10e1a0fb3464736f6c63430008120033",
  "linkReferences": {},
  "deployedLinkReferences": {}
}